{
  "contractName": "BooksToken",
  "abi": [
    {
      "inputs": [
        {
          "internalType": "uint256",
          "name": "initialTokenPrice",
          "type": "uint256"
        }
      ],
      "stateMutability": "nonpayable",
      "type": "constructor"
    },
    {
      "anonymous": false,
      "inputs": [
        {
          "indexed": true,
          "internalType": "address",
          "name": "owner",
          "type": "address"
        },
        {
          "indexed": true,
          "internalType": "address",
          "name": "spender",
          "type": "address"
        },
        {
          "indexed": false,
          "internalType": "uint256",
          "name": "value",
          "type": "uint256"
        }
      ],
      "name": "Approval",
      "type": "event"
    },
    {
      "anonymous": false,
      "inputs": [
        {
          "indexed": true,
          "internalType": "address",
          "name": "previousOwner",
          "type": "address"
        },
        {
          "indexed": true,
          "internalType": "address",
          "name": "newOwner",
          "type": "address"
        }
      ],
      "name": "OwnershipTransferred",
      "type": "event"
    },
    {
      "anonymous": false,
      "inputs": [
        {
          "indexed": true,
          "internalType": "address",
          "name": "from",
          "type": "address"
        },
        {
          "indexed": true,
          "internalType": "address",
          "name": "to",
          "type": "address"
        },
        {
          "indexed": false,
          "internalType": "uint256",
          "name": "value",
          "type": "uint256"
        }
      ],
      "name": "Transfer",
      "type": "event"
    },
    {
      "inputs": [
        {
          "internalType": "address",
          "name": "owner",
          "type": "address"
        },
        {
          "internalType": "address",
          "name": "spender",
          "type": "address"
        }
      ],
      "name": "allowance",
      "outputs": [
        {
          "internalType": "uint256",
          "name": "",
          "type": "uint256"
        }
      ],
      "stateMutability": "view",
      "type": "function",
      "constant": true
    },
    {
      "inputs": [
        {
          "internalType": "address",
          "name": "spender",
          "type": "address"
        },
        {
          "internalType": "uint256",
          "name": "amount",
          "type": "uint256"
        }
      ],
      "name": "approve",
      "outputs": [
        {
          "internalType": "bool",
          "name": "",
          "type": "bool"
        }
      ],
      "stateMutability": "nonpayable",
      "type": "function"
    },
    {
      "inputs": [
        {
          "internalType": "address",
          "name": "account",
          "type": "address"
        }
      ],
      "name": "balanceOf",
      "outputs": [
        {
          "internalType": "uint256",
          "name": "",
          "type": "uint256"
        }
      ],
      "stateMutability": "view",
      "type": "function",
      "constant": true
    },
    {
      "inputs": [
        {
          "internalType": "uint256",
          "name": "amount",
          "type": "uint256"
        }
      ],
      "name": "burn",
      "outputs": [],
      "stateMutability": "nonpayable",
      "type": "function"
    },
    {
      "inputs": [
        {
          "internalType": "address",
          "name": "account",
          "type": "address"
        },
        {
          "internalType": "uint256",
          "name": "amount",
          "type": "uint256"
        }
      ],
      "name": "burnFrom",
      "outputs": [],
      "stateMutability": "nonpayable",
      "type": "function"
    },
    {
      "inputs": [],
      "name": "decimals",
      "outputs": [
        {
          "internalType": "uint8",
          "name": "",
          "type": "uint8"
        }
      ],
      "stateMutability": "view",
      "type": "function",
      "constant": true
    },
    {
      "inputs": [
        {
          "internalType": "address",
          "name": "spender",
          "type": "address"
        },
        {
          "internalType": "uint256",
          "name": "subtractedValue",
          "type": "uint256"
        }
      ],
      "name": "decreaseAllowance",
      "outputs": [
        {
          "internalType": "bool",
          "name": "",
          "type": "bool"
        }
      ],
      "stateMutability": "nonpayable",
      "type": "function"
    },
    {
      "inputs": [
        {
          "internalType": "address",
          "name": "spender",
          "type": "address"
        },
        {
          "internalType": "uint256",
          "name": "addedValue",
          "type": "uint256"
        }
      ],
      "name": "increaseAllowance",
      "outputs": [
        {
          "internalType": "bool",
          "name": "",
          "type": "bool"
        }
      ],
      "stateMutability": "nonpayable",
      "type": "function"
    },
    {
      "inputs": [],
      "name": "name",
      "outputs": [
        {
          "internalType": "string",
          "name": "",
          "type": "string"
        }
      ],
      "stateMutability": "view",
      "type": "function",
      "constant": true
    },
    {
      "inputs": [],
      "name": "owner",
      "outputs": [
        {
          "internalType": "address",
          "name": "",
          "type": "address"
        }
      ],
      "stateMutability": "view",
      "type": "function",
      "constant": true
    },
    {
      "inputs": [],
      "name": "renounceOwnership",
      "outputs": [],
      "stateMutability": "nonpayable",
      "type": "function"
    },
    {
      "inputs": [],
      "name": "symbol",
      "outputs": [
        {
          "internalType": "string",
          "name": "",
          "type": "string"
        }
      ],
      "stateMutability": "view",
      "type": "function",
      "constant": true
    },
    {
      "inputs": [],
      "name": "totalSupply",
      "outputs": [
        {
          "internalType": "uint256",
          "name": "",
          "type": "uint256"
        }
      ],
      "stateMutability": "view",
      "type": "function",
      "constant": true
    },
    {
      "inputs": [
        {
          "internalType": "address",
          "name": "to",
          "type": "address"
        },
        {
          "internalType": "uint256",
          "name": "amount",
          "type": "uint256"
        }
      ],
      "name": "transfer",
      "outputs": [
        {
          "internalType": "bool",
          "name": "",
          "type": "bool"
        }
      ],
      "stateMutability": "nonpayable",
      "type": "function"
    },
    {
      "inputs": [
        {
          "internalType": "address",
          "name": "from",
          "type": "address"
        },
        {
          "internalType": "address",
          "name": "to",
          "type": "address"
        },
        {
          "internalType": "uint256",
          "name": "amount",
          "type": "uint256"
        }
      ],
      "name": "transferFrom",
      "outputs": [
        {
          "internalType": "bool",
          "name": "",
          "type": "bool"
        }
      ],
      "stateMutability": "nonpayable",
      "type": "function"
    },
    {
      "inputs": [
        {
          "internalType": "address",
          "name": "newOwner",
          "type": "address"
        }
      ],
      "name": "transferOwnership",
      "outputs": [],
      "stateMutability": "nonpayable",
      "type": "function"
    },
    {
      "inputs": [
        {
          "internalType": "address",
          "name": "to",
          "type": "address"
        },
        {
          "internalType": "uint256",
          "name": "amount",
          "type": "uint256"
        }
      ],
      "name": "mint",
      "outputs": [],
      "stateMutability": "nonpayable",
      "type": "function"
    },
    {
      "inputs": [
        {
          "internalType": "uint256",
          "name": "newTokenPrice",
          "type": "uint256"
        }
      ],
      "name": "setTokenPrice",
      "outputs": [],
      "stateMutability": "nonpayable",
      "type": "function"
    },
    {
      "inputs": [],
      "name": "buyTokens",
      "outputs": [],
      "stateMutability": "payable",
      "type": "function",
      "payable": true
    },
    {
      "inputs": [],
      "name": "withdraw",
      "outputs": [],
      "stateMutability": "nonpayable",
      "type": "function"
    }
  ],
  "bytecode": "0x608060405266071afd498d00006006553480156200001c57600080fd5b5060405162001889380380620018898339810160408190526200003f9162000159565b6040518060400160405280600581526020017f426f6f6b730000000000000000000000000000000000000000000000000000008152506040518060400160405280600481526020017f424f4f4b000000000000000000000000000000000000000000000000000000008152508160039081620000bc91906200024a565b506004620000cb82826200024a565b505050620000fa620000eb62000103640100000000026401000000009004565b64010000000062000107810204565b6007556200031d565b3390565b60058054600160a060020a03838116600160a060020a0319831681179093556040519116919082907f8be0079c531659141344cd1fd0a4f28419497f9722a3daafe3b4186f6b6457e090600090a35050565b6000602082840312156200016c57600080fd5b5051919050565b7f4e487b7100000000000000000000000000000000000000000000000000000000600052604160045260246000fd5b600281046001821680620001b757607f821691505b602082108103620001f1577f4e487b7100000000000000000000000000000000000000000000000000000000600052602260045260246000fd5b50919050565b601f82111562000245576000818152602081206020601f86010481016020861015620002205750805b6020601f860104820191505b8181101562000241578281556001016200022c565b5050505b505050565b815167ffffffffffffffff81111562000267576200026762000173565b6200027f81620002788454620001a2565b84620001f7565b602080601f831160018114620002bb57600084156200029e5750858301515b60028086026008870290910a600019041982161786555062000241565b600085815260208120601f198616915b82811015620002ec57888601518255948401946001909101908401620002cb565b50858210156200030d57878501516008601f88160260020a60001904191681555b5050505050600202600101905550565b61155c806200032d6000396000f3fe60806040526004361061017c576000357c01000000000000000000000000000000000000000000000000000000009004806370a08231116100dd578063a457c2d711610091578063d0febe4c11610076578063d0febe4c146103d0578063dd62ed3e146103d8578063f2fde38b1461042b57600080fd5b8063a457c2d714610390578063a9059cbb146103b057600080fd5b806379cc6790116100c257806379cc6790146103265780638da5cb5b1461034657806395d89b411461037b57600080fd5b806370a08231146102ce578063715018a61461031157600080fd5b8063395093511161013457806340c10f191161011957806340c10f191461026e57806342966c681461028e5780636a61e5fc146102ae57600080fd5b806339509351146102375780633ccfd60b1461025757600080fd5b806318160ddd1161016557806318160ddd146101dc57806323b872dd146101fb578063313ce5671461021b57600080fd5b806306fdde0314610181578063095ea7b3146101ac575b600080fd5b34801561018d57600080fd5b5061019661044b565b6040516101a391906111a4565b60405180910390f35b3480156101b857600080fd5b506101cc6101c7366004611239565b6104dd565b60405190151581526020016101a3565b3480156101e857600080fd5b506002545b6040519081526020016101a3565b34801561020757600080fd5b506101cc610216366004611263565b6104f7565b34801561022757600080fd5b50604051601281526020016101a3565b34801561024357600080fd5b506101cc610252366004611239565b61051b565b34801561026357600080fd5b5061026c610567565b005b34801561027a57600080fd5b5061026c610289366004611239565b6105d0565b34801561029a57600080fd5b5061026c6102a936600461129f565b61066a565b3480156102ba57600080fd5b5061026c6102c936600461129f565b610674565b3480156102da57600080fd5b506101ed6102e93660046112b8565b73ffffffffffffffffffffffffffffffffffffffff1660009081526020819052604090205490565b34801561031d57600080fd5b5061026c610681565b34801561033257600080fd5b5061026c610341366004611239565b610695565b34801561035257600080fd5b5060055460405173ffffffffffffffffffffffffffffffffffffffff90911681526020016101a3565b34801561038757600080fd5b506101966106aa565b34801561039c57600080fd5b506101cc6103ab366004611239565b6106b9565b3480156103bc57600080fd5b506101cc6103cb366004611239565b61078a565b61026c610798565b3480156103e457600080fd5b506101ed6103f33660046112da565b73ffffffffffffffffffffffffffffffffffffffff918216600090815260016020908152604080832093909416825291909152205490565b34801561043757600080fd5b5061026c6104463660046112b8565b61084f565b60606003805461045a9061130d565b80601f01602080910402602001604051908101604052809291908181526020018280546104869061130d565b80156104d35780601f106104a8576101008083540402835291602001916104d3565b820191906000526020600020905b8154815290600101906020018083116104b657829003601f168201915b5050505050905090565b6000336104eb818585610903565b60019150505b92915050565b600033610505858285610ab7565b610510858585610b8e565b506001949350505050565b33600081815260016020908152604080832073ffffffffffffffffffffffffffffffffffffffff871684529091528120549091906104eb908290869061056290879061138f565b610903565b61056f610dfd565b60055473ffffffffffffffffffffffffffffffffffffffff1660405173ffffffffffffffffffffffffffffffffffffffff9190911690303180156108fc02916000818181858888f193505050501580156105cd573d6000803e3d6000fd5b50565b6105d8610dfd565b600654816105e560025490565b6105ef919061138f565b111561065c576040517f08c379a000000000000000000000000000000000000000000000000000000000815260206004820152601e60248201527f426f6f6b73546f6b656e3a2045786365656473206d617820737570706c79000060448201526064015b60405180910390fd5b6106668282610e7e565b5050565b6105cd3382610f71565b61067c610dfd565b600755565b610689610dfd565b610693600061112d565b565b6106a0823383610ab7565b6106668282610f71565b60606004805461045a9061130d565b33600081815260016020908152604080832073ffffffffffffffffffffffffffffffffffffffff871684529091528120549091908381101561077d576040517f08c379a000000000000000000000000000000000000000000000000000000000815260206004820152602560248201527f45524332303a2064656372656173656420616c6c6f77616e63652062656c6f7760448201527f207a65726f0000000000000000000000000000000000000000000000000000006064820152608401610653565b6105108286868403610903565b6000336104eb818585610b8e565b60006007546107a5601290565b6107b090600a6114c5565b6107ba90346114d4565b6107c491906114eb565b9050600654816107d360025490565b6107dd919061138f565b1115610845576040517f08c379a000000000000000000000000000000000000000000000000000000000815260206004820152601e60248201527f426f6f6b73546f6b656e3a2045786365656473206d617820737570706c7900006044820152606401610653565b6105cd3382610e7e565b610857610dfd565b73ffffffffffffffffffffffffffffffffffffffff81166108fa576040517f08c379a000000000000000000000000000000000000000000000000000000000815260206004820152602660248201527f4f776e61626c653a206e6577206f776e657220697320746865207a65726f206160448201527f64647265737300000000000000000000000000000000000000000000000000006064820152608401610653565b6105cd8161112d565b73ffffffffffffffffffffffffffffffffffffffff83166109a5576040517f08c379a0000000000000000000000000000000000000000000000000000000008152602060048201526024808201527f45524332303a20617070726f76652066726f6d20746865207a65726f2061646460448201527f72657373000000000000000000000000000000000000000000000000000000006064820152608401610653565b73ffffffffffffffffffffffffffffffffffffffff8216610a48576040517f08c379a000000000000000000000000000000000000000000000000000000000815260206004820152602260248201527f45524332303a20617070726f766520746f20746865207a65726f20616464726560448201527f73730000000000000000000000000000000000000000000000000000000000006064820152608401610653565b73ffffffffffffffffffffffffffffffffffffffff83811660008181526001602090815260408083209487168084529482529182902085905590518481527f8c5be1e5ebec7d5bd14f71427d1e84f3dd0314c0f7b2291e5b200ac8c7c3b92591015b60405180910390a3505050565b73ffffffffffffffffffffffffffffffffffffffff8381166000908152600160209081526040808320938616835292905220547fffffffffffffffffffffffffffffffffffffffffffffffffffffffffffffffff8114610b885781811015610b7b576040517f08c379a000000000000000000000000000000000000000000000000000000000815260206004820152601d60248201527f45524332303a20696e73756666696369656e7420616c6c6f77616e63650000006044820152606401610653565b610b888484848403610903565b50505050565b73ffffffffffffffffffffffffffffffffffffffff8316610c31576040517f08c379a000000000000000000000000000000000000000000000000000000000815260206004820152602560248201527f45524332303a207472616e736665722066726f6d20746865207a65726f20616460448201527f64726573730000000000000000000000000000000000000000000000000000006064820152608401610653565b73ffffffffffffffffffffffffffffffffffffffff8216610cd4576040517f08c379a000000000000000000000000000000000000000000000000000000000815260206004820152602360248201527f45524332303a207472616e7366657220746f20746865207a65726f206164647260448201527f65737300000000000000000000000000000000000000000000000000000000006064820152608401610653565b73ffffffffffffffffffffffffffffffffffffffff831660009081526020819052604090205481811015610d8a576040517f08c379a000000000000000000000000000000000000000000000000000000000815260206004820152602660248201527f45524332303a207472616e7366657220616d6f756e742065786365656473206260448201527f616c616e636500000000000000000000000000000000000000000000000000006064820152608401610653565b73ffffffffffffffffffffffffffffffffffffffff848116600081815260208181526040808320878703905593871680835291849020805487019055925185815290927fddf252ad1be2c89b69c2b068fc378daa952ba7f163c4a11628f55a4df523b3ef910160405180910390a3610b88565b60055473ffffffffffffffffffffffffffffffffffffffff163314610693576040517f08c379a000000000000000000000000000000000000000000000000000000000815260206004820181905260248201527f4f776e61626c653a2063616c6c6572206973206e6f7420746865206f776e65726044820152606401610653565b73ffffffffffffffffffffffffffffffffffffffff8216610efb576040517f08c379a000000000000000000000000000000000000000000000000000000000815260206004820152601f60248201527f45524332303a206d696e7420746f20746865207a65726f2061646472657373006044820152606401610653565b8060026000828254610f0d919061138f565b909155505073ffffffffffffffffffffffffffffffffffffffff8216600081815260208181526040808320805486019055518481527fddf252ad1be2c89b69c2b068fc378daa952ba7f163c4a11628f55a4df523b3ef910160405180910390a35050565b73ffffffffffffffffffffffffffffffffffffffff8216611014576040517f08c379a000000000000000000000000000000000000000000000000000000000815260206004820152602160248201527f45524332303a206275726e2066726f6d20746865207a65726f2061646472657360448201527f73000000000000000000000000000000000000000000000000000000000000006064820152608401610653565b73ffffffffffffffffffffffffffffffffffffffff8216600090815260208190526040902054818110156110ca576040517f08c379a000000000000000000000000000000000000000000000000000000000815260206004820152602260248201527f45524332303a206275726e20616d6f756e7420657863656564732062616c616e60448201527f63650000000000000000000000000000000000000000000000000000000000006064820152608401610653565b73ffffffffffffffffffffffffffffffffffffffff83166000818152602081815260408083208686039055600280548790039055518581529192917fddf252ad1be2c89b69c2b068fc378daa952ba7f163c4a11628f55a4df523b3ef9101610aaa565b6005805473ffffffffffffffffffffffffffffffffffffffff8381167fffffffffffffffffffffffff0000000000000000000000000000000000000000831681179093556040519116919082907f8be0079c531659141344cd1fd0a4f28419497f9722a3daafe3b4186f6b6457e090600090a35050565b600060208083528351808285015260005b818110156111d1578581018301518582016040015282016111b5565b5060006040828601015260407fffffffffffffffffffffffffffffffffffffffffffffffffffffffffffffffe0601f8301168501019250505092915050565b803573ffffffffffffffffffffffffffffffffffffffff8116811461123457600080fd5b919050565b6000806040838503121561124c57600080fd5b61125583611210565b946020939093013593505050565b60008060006060848603121561127857600080fd5b61128184611210565b925061128f60208501611210565b9150604084013590509250925092565b6000602082840312156112b157600080fd5b5035919050565b6000602082840312156112ca57600080fd5b6112d382611210565b9392505050565b600080604083850312156112ed57600080fd5b6112f683611210565b915061130460208401611210565b90509250929050565b60028104600182168061132157607f821691505b60208210810361135a577f4e487b7100000000000000000000000000000000000000000000000000000000600052602260045260246000fd5b50919050565b7f4e487b7100000000000000000000000000000000000000000000000000000000600052601160045260246000fd5b808201808211156104f1576104f1611360565b600181815b808511156113fd57817fffffffffffffffffffffffffffffffffffffffffffffffffffffffffffffffff048211156113e1576113e1611360565b808516156113ee57918102915b600290940493908002906113a7565b509250929050565b600082611414575060016104f1565b81611421575060006104f1565b816001811461143757600281146114415761145e565b60019150506104f1565b60ff84111561145257611452611360565b8360020a9150506104f1565b5060208310610133831016604e8410600b8410161715611481575081810a6104f1565b61148b83836113a2565b807fffffffffffffffffffffffffffffffffffffffffffffffffffffffffffffffff048211156114bd576114bd611360565b029392505050565b60006112d360ff841683611405565b80820281158282048414176104f1576104f1611360565b600082611521577f4e487b7100000000000000000000000000000000000000000000000000000000600052601260045260246000fd5b50049056fea26469706673582212206125bfd8a36b08bf932acf967bd05f7bbf4609edd184089282937d62b786d52264736f6c63430008130033",
  "immutableReferences": {},
  "source": "// SPDX-License-Identifier: MIT\npragma solidity ^0.8.19;\n\nimport \"@openzeppelin/contracts/token/ERC20/ERC20.sol\";\nimport \"@openzeppelin/contracts/token/ERC20/extensions/ERC20Burnable.sol\";\nimport \"@openzeppelin/contracts/access/Ownable.sol\";\n\ncontract BooksToken is ERC20, ERC20Burnable, Ownable {\n    uint256 private _maxSupply = 2 * (10 ** 15); // 2 quadrillion tokens (since 18 decimal places by default)\n    uint256 private _tokenPrice;\n\n    constructor(uint256 initialTokenPrice) ERC20(\"Books\", \"BOOK\") {\n        _tokenPrice = initialTokenPrice;\n    }\n\n    function mint(address to, uint256 amount) public onlyOwner {\n        require(totalSupply() + amount <= _maxSupply, \"BooksToken: Exceeds max supply\");\n        _mint(to, amount);\n    }\n\n    function setTokenPrice(uint256 newTokenPrice) public onlyOwner {\n        _tokenPrice = newTokenPrice;\n    }\n\n    function buyTokens() public payable {\n        uint256 tokensToBuy = msg.value * (10 ** decimals()) / _tokenPrice;\n        require(totalSupply() + tokensToBuy <= _maxSupply, \"BooksToken: Exceeds max supply\");\n        _mint(msg.sender, tokensToBuy);\n    }\n\n    function withdraw() public onlyOwner {\n        payable(owner()).transfer(address(this).balance);\n    }\n}",
  "sourcePath": "/Users/saulloveman/booksPlatform/contracts/BooksToken.sol",
  "compiler": {
    "name": "solc",
    "version": "0.8.19+commit.7dd6d404.Emscripten.clang"
  },
  "schemaVersion": "3.4.13",
  "updatedAt": "2023-04-21T19:21:15.427Z",
  "networkType": "ethereum",
  "devdoc": {
    "events": {
      "Approval(address,address,uint256)": {
        "details": "Emitted when the allowance of a `spender` for an `owner` is set by a call to {approve}. `value` is the new allowance."
      },
      "Transfer(address,address,uint256)": {
        "details": "Emitted when `value` tokens are moved from one account (`from`) to another (`to`). Note that `value` may be zero."
      }
    },
    "kind": "dev",
    "methods": {
      "allowance(address,address)": {
        "details": "See {IERC20-allowance}."
      },
      "approve(address,uint256)": {
        "details": "See {IERC20-approve}. NOTE: If `amount` is the maximum `uint256`, the allowance is not updated on `transferFrom`. This is semantically equivalent to an infinite approval. Requirements: - `spender` cannot be the zero address."
      },
      "balanceOf(address)": {
        "details": "See {IERC20-balanceOf}."
      },
      "burn(uint256)": {
        "details": "Destroys `amount` tokens from the caller. See {ERC20-_burn}."
      },
      "burnFrom(address,uint256)": {
        "details": "Destroys `amount` tokens from `account`, deducting from the caller's allowance. See {ERC20-_burn} and {ERC20-allowance}. Requirements: - the caller must have allowance for ``accounts``'s tokens of at least `amount`."
      },
      "decimals()": {
        "details": "Returns the number of decimals used to get its user representation. For example, if `decimals` equals `2`, a balance of `505` tokens should be displayed to a user as `5.05` (`505 / 10 ** 2`). Tokens usually opt for a value of 18, imitating the relationship between Ether and Wei. This is the value {ERC20} uses, unless this function is overridden; NOTE: This information is only used for _display_ purposes: it in no way affects any of the arithmetic of the contract, including {IERC20-balanceOf} and {IERC20-transfer}."
      },
      "decreaseAllowance(address,uint256)": {
        "details": "Atomically decreases the allowance granted to `spender` by the caller. This is an alternative to {approve} that can be used as a mitigation for problems described in {IERC20-approve}. Emits an {Approval} event indicating the updated allowance. Requirements: - `spender` cannot be the zero address. - `spender` must have allowance for the caller of at least `subtractedValue`."
      },
      "increaseAllowance(address,uint256)": {
        "details": "Atomically increases the allowance granted to `spender` by the caller. This is an alternative to {approve} that can be used as a mitigation for problems described in {IERC20-approve}. Emits an {Approval} event indicating the updated allowance. Requirements: - `spender` cannot be the zero address."
      },
      "name()": {
        "details": "Returns the name of the token."
      },
      "owner()": {
        "details": "Returns the address of the current owner."
      },
      "renounceOwnership()": {
        "details": "Leaves the contract without owner. It will not be possible to call `onlyOwner` functions anymore. Can only be called by the current owner. NOTE: Renouncing ownership will leave the contract without an owner, thereby removing any functionality that is only available to the owner."
      },
      "symbol()": {
        "details": "Returns the symbol of the token, usually a shorter version of the name."
      },
      "totalSupply()": {
        "details": "See {IERC20-totalSupply}."
      },
      "transfer(address,uint256)": {
        "details": "See {IERC20-transfer}. Requirements: - `to` cannot be the zero address. - the caller must have a balance of at least `amount`."
      },
      "transferFrom(address,address,uint256)": {
        "details": "See {IERC20-transferFrom}. Emits an {Approval} event indicating the updated allowance. This is not required by the EIP. See the note at the beginning of {ERC20}. NOTE: Does not update the allowance if the current allowance is the maximum `uint256`. Requirements: - `from` and `to` cannot be the zero address. - `from` must have a balance of at least `amount`. - the caller must have allowance for ``from``'s tokens of at least `amount`."
      },
      "transferOwnership(address)": {
        "details": "Transfers ownership of the contract to a new account (`newOwner`). Can only be called by the current owner."
      }
    },
    "version": 1
  },
  "userdoc": {
    "kind": "user",
    "methods": {},
    "version": 1
  }
}