{
  "contractName": "BooksPlatform",
  "abi": [
    {
      "inputs": [
        {
          "internalType": "contract BooksToken",
          "name": "booksToken",
          "type": "address"
        },
        {
          "internalType": "contract BooksNFT",
          "name": "booksNFT",
          "type": "address"
        },
        {
          "internalType": "uint256",
          "name": "burnCost",
          "type": "uint256"
        }
      ],
      "stateMutability": "nonpayable",
      "type": "constructor"
    },
    {
      "anonymous": false,
      "inputs": [
        {
          "indexed": true,
          "internalType": "address",
          "name": "previousOwner",
          "type": "address"
        },
        {
          "indexed": true,
          "internalType": "address",
          "name": "newOwner",
          "type": "address"
        }
      ],
      "name": "OwnershipTransferred",
      "type": "event"
    },
    {
      "inputs": [],
      "name": "owner",
      "outputs": [
        {
          "internalType": "address",
          "name": "",
          "type": "address"
        }
      ],
      "stateMutability": "view",
      "type": "function",
      "constant": true
    },
    {
      "inputs": [],
      "name": "renounceOwnership",
      "outputs": [],
      "stateMutability": "nonpayable",
      "type": "function"
    },
    {
      "inputs": [
        {
          "internalType": "address",
          "name": "newOwner",
          "type": "address"
        }
      ],
      "name": "transferOwnership",
      "outputs": [],
      "stateMutability": "nonpayable",
      "type": "function"
    },
    {
      "inputs": [
        {
          "internalType": "uint256",
          "name": "newBurnCost",
          "type": "uint256"
        }
      ],
      "name": "setBurnCost",
      "outputs": [],
      "stateMutability": "nonpayable",
      "type": "function"
    },
    {
      "inputs": [
        {
          "internalType": "bool",
          "name": "enabled",
          "type": "bool"
        }
      ],
      "name": "setBurnEnabled",
      "outputs": [],
      "stateMutability": "nonpayable",
      "type": "function"
    },
    {
      "inputs": [
        {
          "internalType": "string",
          "name": "tokenURI",
          "type": "string"
        }
      ],
      "name": "burnTokensForNFT",
      "outputs": [],
      "stateMutability": "nonpayable",
      "type": "function"
    }
  ],
  "bytecode": "0x608060405234801561001057600080fd5b50604051610a37380380610a3783398101604081905261002f91610109565b600160005561005661004864010000000061009b810204565b64010000000061009f810204565b60028054600160a060020a03948516600160a060020a03199182161790915560038054939094169216919091179091556004556005805460ff1916600117905561014c565b3390565b60018054600160a060020a03838116600160a060020a0319831681179093556040519116919082907f8be0079c531659141344cd1fd0a4f28419497f9722a3daafe3b4186f6b6457e090600090a35050565b600160a060020a038116811461010657600080fd5b50565b60008060006060848603121561011e57600080fd5b8351610129816100f1565b602085015190935061013a816100f1565b80925050604084015190509250925092565b6108dc8061015b6000396000f3fe608060405234801561001057600080fd5b506004361061008f576000357c010000000000000000000000000000000000000000000000000000000090048063d5dc2e751161006d578063d5dc2e75146100dd578063d949115d146100f0578063f2fde38b1461010357600080fd5b8063715018a6146100945780637b2c835f1461009e5780638da5cb5b146100b1575b600080fd5b61009c610116565b005b61009c6100ac36600461068d565b61012a565b6001546040805173ffffffffffffffffffffffffffffffffffffffff9092168252519081900360200190f35b61009c6100eb3660046106e5565b610163565b61009c6100fe3660046107b4565b610461565b61009c6101113660046107cd565b61046e565b61011e610522565b61012860006105a3565b565b610132610522565b600580547fffffffffffffffffffffffffffffffffffffffffffffffffffffffffffffff0016911515919091179055565b61016b61061a565b60055460ff16610202576040517f08c379a000000000000000000000000000000000000000000000000000000000815260206004820152603260248201527f426f6f6b73506c6174666f726d3a20546f6b656e206275726e696e672069732060448201527f63757272656e746c792064697361626c6564000000000000000000000000000060648201526084015b60405180910390fd5b600480546002546040517f70a082310000000000000000000000000000000000000000000000000000000081523393810193909352909173ffffffffffffffffffffffffffffffffffffffff909116906370a0823190602401602060405180830381865afa158015610278573d6000803e3d6000fd5b505050506040513d601f19601f8201168201806040525081019061029c9190610803565b101561032a576040517f08c379a000000000000000000000000000000000000000000000000000000000815260206004820152602660248201527f426f6f6b73506c6174666f726d3a204e6f7420656e6f75676820426f6f6b732060448201527f746f6b656e73000000000000000000000000000000000000000000000000000060648201526084016101f9565b600254600480546040517f79cc67900000000000000000000000000000000000000000000000000000000081523392810192909252602482015273ffffffffffffffffffffffffffffffffffffffff909116906379cc679090604401600060405180830381600087803b1580156103a057600080fd5b505af11580156103b4573d6000803e3d6000fd5b50506003546040517feacabe1400000000000000000000000000000000000000000000000000000000815273ffffffffffffffffffffffffffffffffffffffff909116925063eacabe149150610410903390859060040161081c565b6020604051808303816000875af115801561042f573d6000803e3d6000fd5b505050506040513d601f19601f820116820180604052508101906104539190610803565b5061045e6001600055565b50565b610469610522565b600455565b610476610522565b73ffffffffffffffffffffffffffffffffffffffff8116610519576040517f08c379a000000000000000000000000000000000000000000000000000000000815260206004820152602660248201527f4f776e61626c653a206e6577206f776e657220697320746865207a65726f206160448201527f646472657373000000000000000000000000000000000000000000000000000060648201526084016101f9565b61045e816105a3565b60015473ffffffffffffffffffffffffffffffffffffffff163314610128576040517f08c379a000000000000000000000000000000000000000000000000000000000815260206004820181905260248201527f4f776e61626c653a2063616c6c6572206973206e6f7420746865206f776e657260448201526064016101f9565b6001805473ffffffffffffffffffffffffffffffffffffffff8381167fffffffffffffffffffffffff0000000000000000000000000000000000000000831681179093556040519116919082907f8be0079c531659141344cd1fd0a4f28419497f9722a3daafe3b4186f6b6457e090600090a35050565b600260005403610686576040517f08c379a000000000000000000000000000000000000000000000000000000000815260206004820152601f60248201527f5265656e7472616e637947756172643a207265656e7472616e742063616c6c0060448201526064016101f9565b6002600055565b60006020828403121561069f57600080fd5b813580151581146106af57600080fd5b9392505050565b7f4e487b7100000000000000000000000000000000000000000000000000000000600052604160045260246000fd5b6000602082840312156106f757600080fd5b813567ffffffffffffffff8082111561070f57600080fd5b818401915084601f83011261072357600080fd5b813581811115610735576107356106b6565b604051601f82017fffffffffffffffffffffffffffffffffffffffffffffffffffffffffffffffe0908116603f0116810190838211818310171561077b5761077b6106b6565b8160405282815287602084870101111561079457600080fd5b826020860160208301376000928101602001929092525095945050505050565b6000602082840312156107c657600080fd5b5035919050565b6000602082840312156107df57600080fd5b813573ffffffffffffffffffffffffffffffffffffffff811681146106af57600080fd5b60006020828403121561081557600080fd5b5051919050565b73ffffffffffffffffffffffffffffffffffffffff8316815260006020604081840152835180604085015260005b818110156108665785810183015185820160600152820161084a565b5060006060828601015260607fffffffffffffffffffffffffffffffffffffffffffffffffffffffffffffffe0601f83011685010192505050939250505056fea26469706673582212206ea833100e2e61618f9ea0d31196738facc8dfa02c703902d625ad264441abdb64736f6c63430008130033",
  "immutableReferences": {},
  "source": "// SPDX-License-Identifier: MIT\npragma solidity ^0.8.19;\n\nimport \"./BooksToken.sol\";\nimport \"./BooksNFT.sol\";\nimport \"@openzeppelin/contracts/security/ReentrancyGuard.sol\";\nimport \"@openzeppelin/contracts/access/Ownable.sol\";\n\ncontract BooksPlatform is ReentrancyGuard, Ownable {\n    BooksToken private _booksToken;\n    BooksNFT private _booksNFT;\n    uint256 private _burnCost;\n    bool private _burnEnabled;\n\n    constructor(BooksToken booksToken, BooksNFT booksNFT, uint256 burnCost) {\n        _booksToken = booksToken;\n        _booksNFT = booksNFT;\n        _burnCost = burnCost;\n        _burnEnabled = true;\n    }\n\n    function setBurnCost(uint256 newBurnCost) public onlyOwner {\n        _burnCost = newBurnCost;\n    }\n\n    function setBurnEnabled(bool enabled) public onlyOwner {\n        _burnEnabled = enabled;\n    }\n\n    function burnTokensForNFT(string memory tokenURI) public nonReentrant {\n        require(_burnEnabled, \"BooksPlatform: Token burning is currently disabled\");\n        require(_booksToken.balanceOf(msg.sender) >= _burnCost, \"BooksPlatform: Not enough Books tokens\");\n\n        _booksToken.burnFrom(msg.sender, _burnCost);\n        _booksNFT.mintNFT(msg.sender, tokenURI);\n    }\n}",
  "sourcePath": "/Users/saulloveman/booksPlatform/contracts/BooksPlatform.sol",
  "compiler": {
    "name": "solc",
    "version": "0.8.19+commit.7dd6d404.Emscripten.clang"
  },
  "schemaVersion": "3.4.13",
  "updatedAt": "2023-04-21T19:21:15.446Z",
  "networkType": "ethereum",
  "devdoc": {
    "kind": "dev",
    "methods": {
      "owner()": {
        "details": "Returns the address of the current owner."
      },
      "renounceOwnership()": {
        "details": "Leaves the contract without owner. It will not be possible to call `onlyOwner` functions anymore. Can only be called by the current owner. NOTE: Renouncing ownership will leave the contract without an owner, thereby removing any functionality that is only available to the owner."
      },
      "transferOwnership(address)": {
        "details": "Transfers ownership of the contract to a new account (`newOwner`). Can only be called by the current owner."
      }
    },
    "version": 1
  },
  "userdoc": {
    "kind": "user",
    "methods": {},
    "version": 1
  }
}